{
  "_format": "hh-sol-artifact-1",
  "contractName": "Nft",
  "sourceName": "contracts/Nft.sol",
  "abi": [
    {
      "inputs": [],
      "stateMutability": "nonpayable",
      "type": "constructor"
    },
    {
      "anonymous": false,
      "inputs": [
        {
          "indexed": true,
          "internalType": "address",
          "name": "owner",
          "type": "address"
        },
        {
          "indexed": true,
          "internalType": "address",
          "name": "approved",
          "type": "address"
        },
        {
          "indexed": true,
          "internalType": "uint256",
          "name": "tokenId",
          "type": "uint256"
        }
      ],
      "name": "Approval",
      "type": "event"
    },
    {
      "anonymous": false,
      "inputs": [
        {
          "indexed": true,
          "internalType": "address",
          "name": "owner",
          "type": "address"
        },
        {
          "indexed": true,
          "internalType": "address",
          "name": "operator",
          "type": "address"
        },
        {
          "indexed": false,
          "internalType": "bool",
          "name": "approved",
          "type": "bool"
        }
      ],
      "name": "ApprovalForAll",
      "type": "event"
    },
    {
      "anonymous": false,
      "inputs": [
        {
          "indexed": true,
          "internalType": "address",
          "name": "from",
          "type": "address"
        },
        {
          "indexed": true,
          "internalType": "address",
          "name": "to",
          "type": "address"
        },
        {
          "indexed": true,
          "internalType": "uint256",
          "name": "tokenId",
          "type": "uint256"
        }
      ],
      "name": "Transfer",
      "type": "event"
    },
    {
      "inputs": [
        {
          "internalType": "address",
          "name": "to",
          "type": "address"
        },
        {
          "internalType": "uint256",
          "name": "tokenId",
          "type": "uint256"
        }
      ],
      "name": "approve",
      "outputs": [],
      "stateMutability": "nonpayable",
      "type": "function"
    },
    {
      "inputs": [
        {
          "internalType": "address",
          "name": "owner",
          "type": "address"
        }
      ],
      "name": "balanceOf",
      "outputs": [
        {
          "internalType": "uint256",
          "name": "",
          "type": "uint256"
        }
      ],
      "stateMutability": "view",
      "type": "function"
    },
    {
      "inputs": [
        {
          "internalType": "string",
          "name": "tokenURI",
          "type": "string"
        }
      ],
      "name": "createCollectible",
      "outputs": [
        {
          "internalType": "uint256",
          "name": "",
          "type": "uint256"
        }
      ],
      "stateMutability": "nonpayable",
      "type": "function"
    },
    {
      "inputs": [
        {
          "internalType": "uint256",
          "name": "tokenId",
          "type": "uint256"
        }
      ],
      "name": "getApproved",
      "outputs": [
        {
          "internalType": "address",
          "name": "",
          "type": "address"
        }
      ],
      "stateMutability": "view",
      "type": "function"
    },
    {
      "inputs": [
        {
          "internalType": "address",
          "name": "owner",
          "type": "address"
        },
        {
          "internalType": "address",
          "name": "operator",
          "type": "address"
        }
      ],
      "name": "isApprovedForAll",
      "outputs": [
        {
          "internalType": "bool",
          "name": "",
          "type": "bool"
        }
      ],
      "stateMutability": "view",
      "type": "function"
    },
    {
      "inputs": [],
      "name": "name",
      "outputs": [
        {
          "internalType": "string",
          "name": "",
          "type": "string"
        }
      ],
      "stateMutability": "view",
      "type": "function"
    },
    {
      "inputs": [
        {
          "internalType": "uint256",
          "name": "tokenId",
          "type": "uint256"
        }
      ],
      "name": "ownerOf",
      "outputs": [
        {
          "internalType": "address",
          "name": "",
          "type": "address"
        }
      ],
      "stateMutability": "view",
      "type": "function"
    },
    {
      "inputs": [
        {
          "internalType": "address",
          "name": "from",
          "type": "address"
        },
        {
          "internalType": "address",
          "name": "to",
          "type": "address"
        },
        {
          "internalType": "uint256",
          "name": "tokenId",
          "type": "uint256"
        }
      ],
      "name": "safeTransferFrom",
      "outputs": [],
      "stateMutability": "nonpayable",
      "type": "function"
    },
    {
      "inputs": [
        {
          "internalType": "address",
          "name": "from",
          "type": "address"
        },
        {
          "internalType": "address",
          "name": "to",
          "type": "address"
        },
        {
          "internalType": "uint256",
          "name": "tokenId",
          "type": "uint256"
        },
        {
          "internalType": "bytes",
          "name": "_data",
          "type": "bytes"
        }
      ],
      "name": "safeTransferFrom",
      "outputs": [],
      "stateMutability": "nonpayable",
      "type": "function"
    },
    {
      "inputs": [
        {
          "internalType": "address",
          "name": "operator",
          "type": "address"
        },
        {
          "internalType": "bool",
          "name": "approved",
          "type": "bool"
        }
      ],
      "name": "setApprovalForAll",
      "outputs": [],
      "stateMutability": "nonpayable",
      "type": "function"
    },
    {
      "inputs": [
        {
          "internalType": "bytes4",
          "name": "interfaceId",
          "type": "bytes4"
        }
      ],
      "name": "supportsInterface",
      "outputs": [
        {
          "internalType": "bool",
          "name": "",
          "type": "bool"
        }
      ],
      "stateMutability": "view",
      "type": "function"
    },
    {
      "inputs": [],
      "name": "symbol",
      "outputs": [
        {
          "internalType": "string",
          "name": "",
          "type": "string"
        }
      ],
      "stateMutability": "view",
      "type": "function"
    },
    {
      "inputs": [
        {
          "internalType": "uint256",
          "name": "tokenId",
          "type": "uint256"
        }
      ],
      "name": "tokenURI",
      "outputs": [
        {
          "internalType": "string",
          "name": "",
          "type": "string"
        }
      ],
      "stateMutability": "view",
      "type": "function"
    },
    {
      "inputs": [
        {
          "internalType": "address",
          "name": "from",
          "type": "address"
        },
        {
          "internalType": "address",
          "name": "to",
          "type": "address"
        },
        {
          "internalType": "uint256",
          "name": "tokenId",
          "type": "uint256"
        }
      ],
      "name": "transferFrom",
      "outputs": [],
      "stateMutability": "nonpayable",
      "type": "function"
    }
  ],
  "bytecode": "0x60806040523480156200001157600080fd5b506040518060400160405280600f81526020017f4775696272616775696e69204e667400000000000000000000000000000000008152506040518060400160405280600381526020017f47424e0000000000000000000000000000000000000000000000000000000000815250816000908051906020019062000096929190620000c0565b508060019080519060200190620000af929190620000c0565b5050506000600781905550620001d5565b828054620000ce9062000170565b90600052602060002090601f016020900481019282620000f257600085556200013e565b82601f106200010d57805160ff19168380011785556200013e565b828001600101855582156200013e579182015b828111156200013d57825182559160200191906001019062000120565b5b5090506200014d919062000151565b5090565b5b808211156200016c57600081600090555060010162000152565b5090565b600060028204905060018216806200018957607f821691505b60208210811415620001a0576200019f620001a6565b5b50919050565b7f4e487b7100000000000000000000000000000000000000000000000000000000600052602260045260246000fd5b612bde80620001e56000396000f3fe608060405234801561001057600080fd5b50600436106100ea5760003560e01c80636352211e1161008c578063a22cb46511610066578063a22cb4651461026f578063b88d4fde1461028b578063c87b56dd146102a7578063e985e9c5146102d7576100ea565b80636352211e146101f157806370a082311461022157806395d89b4114610251576100ea565b8063095ea7b3116100c8578063095ea7b31461016d57806323b872dd1461018957806331f1f3c3146101a557806342842e0e146101d5576100ea565b806301ffc9a7146100ef57806306fdde031461011f578063081812fc1461013d575b600080fd5b61010960048036038101906101049190611c4a565b610307565b6040516101169190612091565b60405180910390f35b6101276103e9565b60405161013491906120ac565b60405180910390f35b61015760048036038101906101529190611cdd565b61047b565b604051610164919061202a565b60405180910390f35b61018760048036038101906101829190611c0e565b610500565b005b6101a3600480360381019061019e9190611b08565b610618565b005b6101bf60048036038101906101ba9190611c9c565b610678565b6040516101cc91906122ce565b60405180910390f35b6101ef60048036038101906101ea9190611b08565b6106b2565b005b61020b60048036038101906102069190611cdd565b6106d2565b604051610218919061202a565b60405180910390f35b61023b60048036038101906102369190611aa3565b610784565b60405161024891906122ce565b60405180910390f35b61025961083c565b60405161026691906120ac565b60405180910390f35b61028960048036038101906102849190611bd2565b6108ce565b005b6102a560048036038101906102a09190611b57565b6108e4565b005b6102c160048036038101906102bc9190611cdd565b610946565b6040516102ce91906120ac565b60405180910390f35b6102f160048036038101906102ec9190611acc565b610a98565b6040516102fe9190612091565b60405180910390f35b60007f80ac58cd000000000000000000000000000000000000000000000000000000007bffffffffffffffffffffffffffffffffffffffffffffffffffffffff1916827bffffffffffffffffffffffffffffffffffffffffffffffffffffffff191614806103d257507f5b5e139f000000000000000000000000000000000000000000000000000000007bffffffffffffffffffffffffffffffffffffffffffffffffffffffff1916827bffffffffffffffffffffffffffffffffffffffffffffffffffffffff1916145b806103e257506103e182610b2c565b5b9050919050565b6060600080546103f890612524565b80601f016020809104026020016040519081016040528092919081815260200182805461042490612524565b80156104715780601f1061044657610100808354040283529160200191610471565b820191906000526020600020905b81548152906001019060200180831161045457829003601f168201915b5050505050905090565b600061048682610b96565b6104c5576040517f08c379a00000000000000000000000000000000000000000000000000000000081526004016104bc9061224e565b60405180910390fd5b6004600083815260200190815260200160002060009054906101000a900473ffffffffffffffffffffffffffffffffffffffff169050919050565b600061050b826106d2565b90508073ffffffffffffffffffffffffffffffffffffffff168373ffffffffffffffffffffffffffffffffffffffff16141561057c576040517f08c379a00000000000000000000000000000000000000000000000000000000081526004016105739061228e565b60405180910390fd5b8073ffffffffffffffffffffffffffffffffffffffff1661059b610c02565b73ffffffffffffffffffffffffffffffffffffffff1614806105ca57506105c9816105c4610c02565b610a98565b5b610609576040517f08c379a00000000000000000000000000000000000000000000000000000000081526004016106009061218e565b60405180910390fd5b6106138383610c0a565b505050565b610629610623610c02565b82610cc3565b610668576040517f08c379a000000000000000000000000000000000000000000000000000000000815260040161065f906122ae565b60405180910390fd5b610673838383610da1565b505050565b600080600754905061068a3382611008565b6106948184611026565b60016007546106a391906123b3565b60078190555080915050919050565b6106cd838383604051806020016040528060008152506108e4565b505050565b6000806002600084815260200190815260200160002060009054906101000a900473ffffffffffffffffffffffffffffffffffffffff169050600073ffffffffffffffffffffffffffffffffffffffff168173ffffffffffffffffffffffffffffffffffffffff16141561077b576040517f08c379a0000000000000000000000000000000000000000000000000000000008152600401610772906121ce565b60405180910390fd5b80915050919050565b60008073ffffffffffffffffffffffffffffffffffffffff168273ffffffffffffffffffffffffffffffffffffffff1614156107f5576040517f08c379a00000000000000000000000000000000000000000000000000000000081526004016107ec906121ae565b60405180910390fd5b600360008373ffffffffffffffffffffffffffffffffffffffff1673ffffffffffffffffffffffffffffffffffffffff168152602001908152602001600020549050919050565b60606001805461084b90612524565b80601f016020809104026020016040519081016040528092919081815260200182805461087790612524565b80156108c45780601f10610899576101008083540402835291602001916108c4565b820191906000526020600020905b8154815290600101906020018083116108a757829003601f168201915b5050505050905090565b6108e06108d9610c02565b838361109a565b5050565b6108f56108ef610c02565b83610cc3565b610934576040517f08c379a000000000000000000000000000000000000000000000000000000000815260040161092b906122ae565b60405180910390fd5b61094084848484611207565b50505050565b606061095182610b96565b610990576040517f08c379a00000000000000000000000000000000000000000000000000000000081526004016109879061222e565b60405180910390fd5b60006006600084815260200190815260200160002080546109b090612524565b80601f01602080910402602001604051908101604052809291908181526020018280546109dc90612524565b8015610a295780601f106109fe57610100808354040283529160200191610a29565b820191906000526020600020905b815481529060010190602001808311610a0c57829003601f168201915b505050505090506000610a3a611263565b9050600081511415610a50578192505050610a93565b600082511115610a85578082604051602001610a6d929190612006565b60405160208183030381529060405292505050610a93565b610a8e8461127a565b925050505b919050565b6000600560008473ffffffffffffffffffffffffffffffffffffffff1673ffffffffffffffffffffffffffffffffffffffff16815260200190815260200160002060008373ffffffffffffffffffffffffffffffffffffffff1673ffffffffffffffffffffffffffffffffffffffff16815260200190815260200160002060009054906101000a900460ff16905092915050565b60007f01ffc9a7000000000000000000000000000000000000000000000000000000007bffffffffffffffffffffffffffffffffffffffffffffffffffffffff1916827bffffffffffffffffffffffffffffffffffffffffffffffffffffffff1916149050919050565b60008073ffffffffffffffffffffffffffffffffffffffff166002600084815260200190815260200160002060009054906101000a900473ffffffffffffffffffffffffffffffffffffffff1673ffffffffffffffffffffffffffffffffffffffff1614159050919050565b600033905090565b816004600083815260200190815260200160002060006101000a81548173ffffffffffffffffffffffffffffffffffffffff021916908373ffffffffffffffffffffffffffffffffffffffff160217905550808273ffffffffffffffffffffffffffffffffffffffff16610c7d836106d2565b73ffffffffffffffffffffffffffffffffffffffff167f8c5be1e5ebec7d5bd14f71427d1e84f3dd0314c0f7b2291e5b200ac8c7c3b92560405160405180910390a45050565b6000610cce82610b96565b610d0d576040517f08c379a0000000000000000000000000000000000000000000000000000000008152600401610d049061216e565b60405180910390fd5b6000610d18836106d2565b90508073ffffffffffffffffffffffffffffffffffffffff168473ffffffffffffffffffffffffffffffffffffffff161480610d5a5750610d598185610a98565b5b80610d9857508373ffffffffffffffffffffffffffffffffffffffff16610d808461047b565b73ffffffffffffffffffffffffffffffffffffffff16145b91505092915050565b8273ffffffffffffffffffffffffffffffffffffffff16610dc1826106d2565b73ffffffffffffffffffffffffffffffffffffffff1614610e17576040517f08c379a0000000000000000000000000000000000000000000000000000000008152600401610e0e906120ee565b60405180910390fd5b600073ffffffffffffffffffffffffffffffffffffffff168273ffffffffffffffffffffffffffffffffffffffff161415610e87576040517f08c379a0000000000000000000000000000000000000000000000000000000008152600401610e7e9061212e565b60405180910390fd5b610e92838383611321565b610e9d600082610c0a565b6001600360008573ffffffffffffffffffffffffffffffffffffffff1673ffffffffffffffffffffffffffffffffffffffff1681526020019081526020016000206000828254610eed919061243a565b925050819055506001600360008473ffffffffffffffffffffffffffffffffffffffff1673ffffffffffffffffffffffffffffffffffffffff1681526020019081526020016000206000828254610f4491906123b3565b92505081905550816002600083815260200190815260200160002060006101000a81548173ffffffffffffffffffffffffffffffffffffffff021916908373ffffffffffffffffffffffffffffffffffffffff160217905550808273ffffffffffffffffffffffffffffffffffffffff168473ffffffffffffffffffffffffffffffffffffffff167fddf252ad1be2c89b69c2b068fc378daa952ba7f163c4a11628f55a4df523b3ef60405160405180910390a4611003838383611326565b505050565b61102282826040518060200160405280600081525061132b565b5050565b61102f82610b96565b61106e576040517f08c379a0000000000000000000000000000000000000000000000000000000008152600401611065906121ee565b60405180910390fd5b806006600084815260200190815260200160002090805190602001906110959291906118c7565b505050565b8173ffffffffffffffffffffffffffffffffffffffff168373ffffffffffffffffffffffffffffffffffffffff161415611109576040517f08c379a00000000000000000000000000000000000000000000000000000000081526004016111009061214e565b60405180910390fd5b80600560008573ffffffffffffffffffffffffffffffffffffffff1673ffffffffffffffffffffffffffffffffffffffff16815260200190815260200160002060008473ffffffffffffffffffffffffffffffffffffffff1673ffffffffffffffffffffffffffffffffffffffff16815260200190815260200160002060006101000a81548160ff0219169083151502179055508173ffffffffffffffffffffffffffffffffffffffff168373ffffffffffffffffffffffffffffffffffffffff167f17307eab39ab6107e8899845ad3d59bd9653f200f220920489ca2b5937696c31836040516111fa9190612091565b60405180910390a3505050565b611212848484610da1565b61121e84848484611386565b61125d576040517f08c379a0000000000000000000000000000000000000000000000000000000008152600401611254906120ce565b60405180910390fd5b50505050565b606060405180602001604052806000815250905090565b606061128582610b96565b6112c4576040517f08c379a00000000000000000000000000000000000000000000000000000000081526004016112bb9061226e565b60405180910390fd5b60006112ce611263565b905060008151116112ee5760405180602001604052806000815250611319565b806112f88461151d565b604051602001611309929190612006565b6040516020818303038152906040525b915050919050565b505050565b505050565b61133583836116ca565b6113426000848484611386565b611381576040517f08c379a0000000000000000000000000000000000000000000000000000000008152600401611378906120ce565b60405180910390fd5b505050565b60006113a78473ffffffffffffffffffffffffffffffffffffffff166118a4565b15611510578373ffffffffffffffffffffffffffffffffffffffff1663150b7a026113d0610c02565b8786866040518563ffffffff1660e01b81526004016113f29493929190612045565b602060405180830381600087803b15801561140c57600080fd5b505af192505050801561143d57506040513d601f19601f8201168201806040525081019061143a9190611c73565b60015b6114c0573d806000811461146d576040519150601f19603f3d011682016040523d82523d6000602084013e611472565b606091505b506000815114156114b8576040517f08c379a00000000000000000000000000000000000000000000000000000000081526004016114af906120ce565b60405180910390fd5b805181602001fd5b63150b7a0260e01b7bffffffffffffffffffffffffffffffffffffffffffffffffffffffff1916817bffffffffffffffffffffffffffffffffffffffffffffffffffffffff191614915050611515565b600190505b949350505050565b60606000821415611565576040518060400160405280600181526020017f300000000000000000000000000000000000000000000000000000000000000081525090506116c5565b600082905060005b6000821461159757808061158090612587565b915050600a826115909190612409565b915061156d565b60008167ffffffffffffffff8111156115d9577f4e487b7100000000000000000000000000000000000000000000000000000000600052604160045260246000fd5b6040519080825280601f01601f19166020018201604052801561160b5781602001600182028036833780820191505090505b5090505b600085146116be57600182611624919061243a565b9150600a8561163391906125d0565b603061163f91906123b3565b60f81b81838151811061167b577f4e487b7100000000000000000000000000000000000000000000000000000000600052603260045260246000fd5b60200101907effffffffffffffffffffffffffffffffffffffffffffffffffffffffffffff1916908160001a905350600a856116b79190612409565b945061160f565b8093505050505b919050565b600073ffffffffffffffffffffffffffffffffffffffff168273ffffffffffffffffffffffffffffffffffffffff16141561173a576040517f08c379a00000000000000000000000000000000000000000000000000000000081526004016117319061220e565b60405180910390fd5b61174381610b96565b15611783576040517f08c379a000000000000000000000000000000000000000000000000000000000815260040161177a9061210e565b60405180910390fd5b61178f60008383611321565b6001600360008473ffffffffffffffffffffffffffffffffffffffff1673ffffffffffffffffffffffffffffffffffffffff16815260200190815260200160002060008282546117df91906123b3565b92505081905550816002600083815260200190815260200160002060006101000a81548173ffffffffffffffffffffffffffffffffffffffff021916908373ffffffffffffffffffffffffffffffffffffffff160217905550808273ffffffffffffffffffffffffffffffffffffffff16600073ffffffffffffffffffffffffffffffffffffffff167fddf252ad1be2c89b69c2b068fc378daa952ba7f163c4a11628f55a4df523b3ef60405160405180910390a46118a060008383611326565b5050565b6000808273ffffffffffffffffffffffffffffffffffffffff163b119050919050565b8280546118d390612524565b90600052602060002090601f0160209004810192826118f5576000855561193c565b82601f1061190e57805160ff191683800117855561193c565b8280016001018555821561193c579182015b8281111561193b578251825591602001919060010190611920565b5b509050611949919061194d565b5090565b5b8082111561196657600081600090555060010161194e565b5090565b600061197d6119788461230e565b6122e9565b90508281526020810184848401111561199557600080fd5b6119a08482856124e2565b509392505050565b60006119bb6119b68461233f565b6122e9565b9050828152602081018484840111156119d357600080fd5b6119de8482856124e2565b509392505050565b6000813590506119f581612b4c565b92915050565b600081359050611a0a81612b63565b92915050565b600081359050611a1f81612b7a565b92915050565b600081519050611a3481612b7a565b92915050565b600082601f830112611a4b57600080fd5b8135611a5b84826020860161196a565b91505092915050565b600082601f830112611a7557600080fd5b8135611a858482602086016119a8565b91505092915050565b600081359050611a9d81612b91565b92915050565b600060208284031215611ab557600080fd5b6000611ac3848285016119e6565b91505092915050565b60008060408385031215611adf57600080fd5b6000611aed858286016119e6565b9250506020611afe858286016119e6565b9150509250929050565b600080600060608486031215611b1d57600080fd5b6000611b2b868287016119e6565b9350506020611b3c868287016119e6565b9250506040611b4d86828701611a8e565b9150509250925092565b60008060008060808587031215611b6d57600080fd5b6000611b7b878288016119e6565b9450506020611b8c878288016119e6565b9350506040611b9d87828801611a8e565b925050606085013567ffffffffffffffff811115611bba57600080fd5b611bc687828801611a3a565b91505092959194509250565b60008060408385031215611be557600080fd5b6000611bf3858286016119e6565b9250506020611c04858286016119fb565b9150509250929050565b60008060408385031215611c2157600080fd5b6000611c2f858286016119e6565b9250506020611c4085828601611a8e565b9150509250929050565b600060208284031215611c5c57600080fd5b6000611c6a84828501611a10565b91505092915050565b600060208284031215611c8557600080fd5b6000611c9384828501611a25565b91505092915050565b600060208284031215611cae57600080fd5b600082013567ffffffffffffffff811115611cc857600080fd5b611cd484828501611a64565b91505092915050565b600060208284031215611cef57600080fd5b6000611cfd84828501611a8e565b91505092915050565b611d0f8161246e565b82525050565b611d1e81612480565b82525050565b6000611d2f82612370565b611d398185612386565b9350611d498185602086016124f1565b611d52816126bd565b840191505092915050565b6000611d688261237b565b611d728185612397565b9350611d828185602086016124f1565b611d8b816126bd565b840191505092915050565b6000611da18261237b565b611dab81856123a8565b9350611dbb8185602086016124f1565b80840191505092915050565b6000611dd4603283612397565b9150611ddf826126ce565b604082019050919050565b6000611df7602583612397565b9150611e028261271d565b604082019050919050565b6000611e1a601c83612397565b9150611e258261276c565b602082019050919050565b6000611e3d602483612397565b9150611e4882612795565b604082019050919050565b6000611e60601983612397565b9150611e6b826127e4565b602082019050919050565b6000611e83602c83612397565b9150611e8e8261280d565b604082019050919050565b6000611ea6603883612397565b9150611eb18261285c565b604082019050919050565b6000611ec9602a83612397565b9150611ed4826128ab565b604082019050919050565b6000611eec602983612397565b9150611ef7826128fa565b604082019050919050565b6000611f0f602e83612397565b9150611f1a82612949565b604082019050919050565b6000611f32602083612397565b9150611f3d82612998565b602082019050919050565b6000611f55603183612397565b9150611f60826129c1565b604082019050919050565b6000611f78602c83612397565b9150611f8382612a10565b604082019050919050565b6000611f9b602f83612397565b9150611fa682612a5f565b604082019050919050565b6000611fbe602183612397565b9150611fc982612aae565b604082019050919050565b6000611fe1603183612397565b9150611fec82612afd565b604082019050919050565b612000816124d8565b82525050565b60006120128285611d96565b915061201e8284611d96565b91508190509392505050565b600060208201905061203f6000830184611d06565b92915050565b600060808201905061205a6000830187611d06565b6120676020830186611d06565b6120746040830185611ff7565b81810360608301526120868184611d24565b905095945050505050565b60006020820190506120a66000830184611d15565b92915050565b600060208201905081810360008301526120c68184611d5d565b905092915050565b600060208201905081810360008301526120e781611dc7565b9050919050565b6000602082019050818103600083015261210781611dea565b9050919050565b6000602082019050818103600083015261212781611e0d565b9050919050565b6000602082019050818103600083015261214781611e30565b9050919050565b6000602082019050818103600083015261216781611e53565b9050919050565b6000602082019050818103600083015261218781611e76565b9050919050565b600060208201905081810360008301526121a781611e99565b9050919050565b600060208201905081810360008301526121c781611ebc565b9050919050565b600060208201905081810360008301526121e781611edf565b9050919050565b6000602082019050818103600083015261220781611f02565b9050919050565b6000602082019050818103600083015261222781611f25565b9050919050565b6000602082019050818103600083015261224781611f48565b9050919050565b6000602082019050818103600083015261226781611f6b565b9050919050565b6000602082019050818103600083015261228781611f8e565b9050919050565b600060208201905081810360008301526122a781611fb1565b9050919050565b600060208201905081810360008301526122c781611fd4565b9050919050565b60006020820190506122e36000830184611ff7565b92915050565b60006122f3612304565b90506122ff8282612556565b919050565b6000604051905090565b600067ffffffffffffffff8211156123295761232861268e565b5b612332826126bd565b9050602081019050919050565b600067ffffffffffffffff82111561235a5761235961268e565b5b612363826126bd565b9050602081019050919050565b600081519050919050565b600081519050919050565b600082825260208201905092915050565b600082825260208201905092915050565b600081905092915050565b60006123be826124d8565b91506123c9836124d8565b9250827fffffffffffffffffffffffffffffffffffffffffffffffffffffffffffffffff038211156123fe576123fd612601565b5b828201905092915050565b6000612414826124d8565b915061241f836124d8565b92508261242f5761242e612630565b5b828204905092915050565b6000612445826124d8565b9150612450836124d8565b92508282101561246357612462612601565b5b828203905092915050565b6000612479826124b8565b9050919050565b60008115159050919050565b60007fffffffff0000000000000000000000000000000000000000000000000000000082169050919050565b600073ffffffffffffffffffffffffffffffffffffffff82169050919050565b6000819050919050565b82818337600083830152505050565b60005b8381101561250f5780820151818401526020810190506124f4565b8381111561251e576000848401525b50505050565b6000600282049050600182168061253c57607f821691505b602082108114156125505761254f61265f565b5b50919050565b61255f826126bd565b810181811067ffffffffffffffff8211171561257e5761257d61268e565b5b80604052505050565b6000612592826124d8565b91507fffffffffffffffffffffffffffffffffffffffffffffffffffffffffffffffff8214156125c5576125c4612601565b5b600182019050919050565b60006125db826124d8565b91506125e6836124d8565b9250826125f6576125f5612630565b5b828206905092915050565b7f4e487b7100000000000000000000000000000000000000000000000000000000600052601160045260246000fd5b7f4e487b7100000000000000000000000000000000000000000000000000000000600052601260045260246000fd5b7f4e487b7100000000000000000000000000000000000000000000000000000000600052602260045260246000fd5b7f4e487b7100000000000000000000000000000000000000000000000000000000600052604160045260246000fd5b6000601f19601f8301169050919050565b7f4552433732313a207472616e7366657220746f206e6f6e20455243373231526560008201527f63656976657220696d706c656d656e7465720000000000000000000000000000602082015250565b7f4552433732313a207472616e736665722066726f6d20696e636f72726563742060008201527f6f776e6572000000000000000000000000000000000000000000000000000000602082015250565b7f4552433732313a20746f6b656e20616c7265616479206d696e74656400000000600082015250565b7f4552433732313a207472616e7366657220746f20746865207a65726f2061646460008201527f7265737300000000000000000000000000000000000000000000000000000000602082015250565b7f4552433732313a20617070726f766520746f2063616c6c657200000000000000600082015250565b7f4552433732313a206f70657261746f7220717565727920666f72206e6f6e657860008201527f697374656e7420746f6b656e0000000000000000000000000000000000000000602082015250565b7f4552433732313a20617070726f76652063616c6c6572206973206e6f74206f7760008201527f6e6572206e6f7220617070726f76656420666f7220616c6c0000000000000000602082015250565b7f4552433732313a2062616c616e636520717565727920666f7220746865207a6560008201527f726f206164647265737300000000000000000000000000000000000000000000602082015250565b7f4552433732313a206f776e657220717565727920666f72206e6f6e657869737460008201527f656e7420746f6b656e0000000000000000000000000000000000000000000000602082015250565b7f45524337323155524953746f726167653a2055524920736574206f66206e6f6e60008201527f6578697374656e7420746f6b656e000000000000000000000000000000000000602082015250565b7f4552433732313a206d696e7420746f20746865207a65726f2061646472657373600082015250565b7f45524337323155524953746f726167653a2055524920717565727920666f722060008201527f6e6f6e6578697374656e7420746f6b656e000000000000000000000000000000602082015250565b7f4552433732313a20617070726f76656420717565727920666f72206e6f6e657860008201527f697374656e7420746f6b656e0000000000000000000000000000000000000000602082015250565b7f4552433732314d657461646174613a2055524920717565727920666f72206e6f60008201527f6e6578697374656e7420746f6b656e0000000000000000000000000000000000602082015250565b7f4552433732313a20617070726f76616c20746f2063757272656e74206f776e6560008201527f7200000000000000000000000000000000000000000000000000000000000000602082015250565b7f4552433732313a207472616e736665722063616c6c6572206973206e6f74206f60008201527f776e6572206e6f7220617070726f766564000000000000000000000000000000602082015250565b612b558161246e565b8114612b6057600080fd5b50565b612b6c81612480565b8114612b7757600080fd5b50565b612b838161248c565b8114612b8e57600080fd5b50565b612b9a816124d8565b8114612ba557600080fd5b5056fea2646970667358221220ac203b78d8057fae5bcdb24c47867dcc7b5b1f23997082d4f4fb542cd7844c6264736f6c63430008020033",
  "linkReferences": {},
  "deployedLinkReferences": {}
}